:100000000C944A000C9467000C9467000C946700F1
:100010000C94CE010C9467000C9467000C9422059C
:100020000C9456050C94EE040C9467000C94670035
:100030000C9467000C948A050C9486040C94BA0402
:100040000C9452040C9467000C948C080C94CB080C
:100050000C940F090C9467000C9467000C946700D3
:100060000C9467000C9467007503640369036E03C6
:1000700070034B034D0305A84CCDB2D44EB93836AE
:10008000A9020C50B9918688083CA6AAAA2ABE00EB
:100090000000803F11241FBECFEFD8E0DEBFCDBFF0
:1000A00011E0A0E0B1E0E0EEFAE102C005900D92AF
:1000B000A632B107D9F721E0A6E2B1E001C01D9256
:1000C000A23DB207E1F70E942B0A0C946E0D0C942E
:1000D000000080912F0190913001A0913101B091E9
:1000E00032010196A11DB11D80932F019093300123
:1000F000A0933101B093320108950F93809137019D
:1001000090913801019690933801809337012091A6
:1001100036012130A1F018F0223019F185C0843C5D
:10012000994009F085C049EF60E08EE591E00E94BA
:10013000E203109238011092370181E00FC0883835
:10014000934109F075C04DE760E08EE591E00E94B3
:10015000E203109238011092370182E08093360159
:1001600067C08838934109F063C040E069E471E0FA
:100170008EE591E00E94C40360E071E081E791E0C8
:100180000E94DD0200E029E630E040E060E081E727
:1001900091E00E941F048BEB80932A014BEB60E0FF
:1001A0008EE591E00E94E203809126019091270163
:1001B000A0912801B091290180932B0190932C01EB
:1001C000A0932D01B0932E019C013327309342015F
:1001D00020934101492F5A2F6B2F77275527509392
:1001E0004401409343018A2F90E09093460180930D
:1001F000450180912A0190E0909348018093470146
:1002000044E061E471E080910501909106010E9453
:100210001B088091680082608093680080916C0068
:10022000816080936C0004C0843F914009F47BCFCF
:100230000F91089580913C018F5F80933C01823340
:1002400039F540912A014E3740F0455040932A013C
:1002500060E08EE591E00C94E20365E089E290E0D5
:100260000E9456068EE591E00E94D40360E08EE580
:1002700091E00E9408048EE591E00E947B0360E01B
:1002800081E791E00E94450481E791E00C947B03B3
:10029000089580913B018F5F80933B01823309F089
:1002A00068C08091260190912701A0912801B0910A
:1002B000290180932B0190932C01A0932D01B093E1
:1002C0002E0160912F017091300180913101909148
:1002D000320120E030E040E251E40E9419098093AD
:1002E0002A01482F60E08EE591E00E94E2038091B0
:1002F0002B0190912C01A0912D01B0912E019C0118
:1003000033273093420120934101492F5A2F6B2FFD
:100310007727552750934401409343018A2F90E05B
:10032000909346018093450180912A0190E090933B
:1003300048018093470144E061E471E08091050148
:10034000909106010E941B0810923B018091390197
:1003500090913A01019690933A01809339018A3B3A
:10036000944039F440E06AE171E08EE591E00C944C
:10037000C4030895809134019091350101969093C2
:10038000350180933401843C994039F440E06DE7B5
:1003900070E08EE591E00C94C40308951F920F92D3
:1003A0000FB60F9211240F931F932F933F934F93E8
:1003B0005F936F937F938F939F93CF93DF9300D03F
:1003C00000D0CDB7DEB7809168008D7F8093680044
:1003D00086B190913301982790FF32C080FD30C0E4
:1003E00040912F01509130016091310170913201A3
:1003F00049835A836B837C8349815A816B817C81D9
:1004000000913D0110913E0120913F01309140014A
:10041000401B510B620B730B409326015093270135
:10042000609328017093290149815A816B817C81F5
:1004300040933D0150933E0160933F017093400112
:1004400080933301809168008260809368000F90F0
:100450000F900F900F90DF91CF919F918F917F918F
:100460006F915F914F913F912F911F910F910F903D
:100470000FBE0F901F901895CF93DF93CDB7DEB7C7
:100480006A970FB6F894DEBF0FBECDBF8AE1E7E0F2
:10049000F1E0DE01119601900D928A95E1F78091CD
:1004A0000501909106010E94860620E041E0BE0110
:1004B0006F5F7F4F80910501909106010E94A20617
:1004C0006A960FB6F894DEBF0FBECDBFDF91CF9115
:1004D0000895A1E7B1E084E490E011969C938E9397
:1004E000EEE5F1E080EB90E09183808385E390E09E
:1004F00013969C938E93129787E390E09383828365
:100500008EE690E015969C938E93149780E790E08A
:10051000958384831B961C921E921A9750961C9268
:100520001E921F971E961C921E921D97138612866E
:10053000108A178616861586E9E4F1E080E890E0D7
:100540009183808384E890E09383828386E390E0C4
:10055000958384838FE690E097838683158614863F
:10056000128A118A108A17860895FC01A281B3812C
:100570008C911C92A281B38111968C911197119646
:100580001C92A081B1818C911C92A081B1811196A5
:100590008C911197826011968C93A081B1811296F3
:1005A0008C91129712961C92A281B38114966C932F
:1005B0000280F381E02D45830895CF93DF93FC0102
:1005C000EB01A081B18112968C91129712961C9228
:1005D00088819981978386838A819B81918780878F
:1005E000A081B1818C918C7F8C93A081B181119677
:1005F0008C911197877F11968C9386819781A0812A
:10060000B18181309105A1F088F082309105A1F08F
:100610000397E1F48C9183608C93A081B181119652
:100620008C911197886011968C930AC08C9106C0AA
:100630008C9182608C9304C08C9183608C9310C0E9
:10064000A081B1818C8113968C930AC08C918C937C
:10065000A081B18111968C911197877F11968C930F
:10066000A081B18111968C911197887F11968C93FE
:1006700082819381A081B1810084F185E02DC797AB
:1006800071F4E730F10570F5EC5CFF4F11968C9139
:1006900011970C94A90A866029C0876027C0E330AF
:1006A000F105A1F040F43097E9F03197D9F41196B3
:1006B0008C91119709C0E530F10569F0369791F4F6
:1006C00011968C9111970CC0826010C011968C917C
:1006D000119783600BC011968C911197846006C0AE
:1006E000856004C011968C911197816011968C934E
:1006F000DF91CF910895FC01A081B18111969C9169
:100700001197987F11969C930190F081E02D828142
:1007100012820895FC01A081B18111968C911197EC
:10072000887F11968C93A281B3818C911C92028058
:10073000F381E02D8181118208950F93FC013587AB
:1007400024870687A081B18111968C91119790E43E
:10075000699FB0011124682B11966C93A481B58117
:100760008C9181628C930680F781E02D808181627B
:1007700080830F910895DC011696ED91FC911797F7
:1007800080818E7F80830895FC0173876287448710
:10079000A281B3818C9181608C930480F581E02DDE
:1007A0008081816080830895DC011496ED91FC9135
:1007B000159780818E7F80830895DC01ED91FC91F7
:1007C00063830895FC01A481B5818C9181608C9331
:1007D000A081B18161110EC013964C93A481B581A3
:1007E0008C9182608C930190F081E02D80818068F3
:1007F0008083089514964C93A481B5818C91846074
:100800008C930190F081E02D808180628083089537
:10081000DC011496ED91FC9115978081611107C060
:100820008D7F8083ED91FC9180818F7306C08B7FDB
:100830008083ED91FC9180818F7C808308950F935C
:10084000FC0186819781039721F4A081B1811396E1
:100850004C93A281B3818C91662359F084608C9370
:10086000A481B5818C9184608C93308B2787028B17
:100870000AC082608C93A481B5818C9182608C9334
:1008800036872587018B0F910895DC011496ED9131
:10089000FC9115978081662311F08B7F01C08D7FBD
:1008A000808308951F920F920FB60F9211242F93F9
:1008B0003F934F935F936F937F938F939F93AF93E8
:1008C000BF93EF93FF93E0917B01F0917C01309710
:1008D00019F081E791E0099580917D01882329F045
:1008E00080916E008E7F80936E00FF91EF91BF919B
:1008F000AF919F918F917F916F915F914F913F91B8
:100900002F910F900FBE0F901F9018951F920F926E
:100910000FB60F9211242F933F934F935F936F93D2
:100920007F938F939F93AF93BF93EF93FF93E09148
:100930007E01F0917F01309719F081E791E00995F0
:1009400080918201882329F080916E008D7F8093B1
:100950006E00FF91EF91BF91AF919F918F917F9129
:100960006F915F914F913F912F910F900FBE0F901C
:100970001F9018951F920F920FB60F9211242F936C
:100980003F934F935F936F937F938F939F93AF9317
:10099000BF93EF93FF93E0918001F0918101309735
:1009A00019F081E791E0099580918301882329F06E
:1009B00080916E008B7F80936E00FF91EF91BF91CD
:1009C000AF919F918F917F916F915F914F913F91E7
:1009D0002F910F900FBE0F901F9018951F920F929E
:1009E0000FB60F9211242F933F934F935F936F9302
:1009F0007F938F939F93AF93BF93EF93FF93E09178
:100A00006801F0916901309719F08EE591E0099540
:100A100080916A01882329F0809170008E7F8093F5
:100A20007000FF91EF91BF91AF919F918F917F9156
:100A30006F915F914F913F912F910F900FBE0F904B
:100A40001F9018951F920F920FB60F9211242F939B
:100A50003F934F935F936F937F938F939F93AF9346
:100A6000BF93EF93FF93E0916B01F0916C0130978E
:100A700019F08EE591E0099580916F01882329F0A6
:100A8000809170008D7F80937000FF91EF91BF91F6
:100A9000AF919F918F917F916F915F914F913F9116
:100AA0002F910F900FBE0F901F9018951F920F92CD
:100AB0000FB60F9211242F933F934F935F936F9331
:100AC0007F938F939F93AF93BF93EF93FF93E091A7
:100AD0006D01F0916E01309719F08EE591E0099566
:100AE00080917001882329F0809170008B7F809322
:100AF0007000FF91EF91BF91AF919F918F917F9186
:100B00006F915F914F913F912F910F900FBE0F907A
:100B10001F9018951F920F920FB60F9211242F93CA
:100B20003F934F935F936F937F938F939F93AF9375
:100B3000BF93EF93FF93E0915501F09156013097E9
:100B400019F089E491E0099580915701882329F0F3
:100B500080916F008E7F80936F00FF91EF91BF9126
:100B6000AF919F918F917F916F915F914F913F9145
:100B70002F910F900FBE0F901F901895FC01808150
:100B80000895FC0162830895FC01128208952FEFFD
:100B9000FC01228308952FEFFC0120830895FC01BE
:100BA0008281862382830895FC018281962F90950D
:100BB0008923828382814623482B42830895FC0146
:100BC00092816095692362830895FC012281622BE2
:100BD00062830895FC012081622B608308950F9346
:100BE0001F93CF93DF938C01E7E0F0E090E020E0EB
:100BF00070E0220F990FEB010E2E02C0D595C7951C
:100C00000A94E2F7C0FF0DC0DA011E96CD91DC9187
:100C10001F97C230D10511F4216003C0219709F458
:100C20009160319742505109EF3FBFEFFB0709F741
:100C3000F80121839283DF91CF911F910F91089545
:100C4000AB016FEF0C94EF05FC01228181E090E095
:100C500001C0880F6A95EAF782230895DC01129695
:100C60008C911297E1E0F0E0062E01C0EE0F0A949D
:100C7000EAF7E095E8231296EC93129712968C917E
:100C80001297242F217001C0220F6A95EAF7282BB2
:100C900012962C930895FC01428121E030E001C0BE
:100CA000220F6A95EAF7242B22830895FC01928192
:100CB00021E030E001C0220F6A95EAF72095292350
:100CC00022830895FC01408121E030E001C0220F21
:100CD0006A95EAF7242B20830895FC01218181E0A5
:100CE00090E001C0880F6A95EAF74230510519F487
:100CF000822B81830895382F30952323218341301F
:100D0000510519F49281892B8283089580EC90E03B
:100D100090938501809384011092CF011092CE01AF
:100D20001092D1011092D00180910501909106019D
:100D300002960E94C4098091050190910601869651
:100D40000C94C409EF92FF920F931F93CF93DF93FC
:100D5000EC018B01F42EE22EFC01E65BFF4FDB0180
:100D600056968D919C915797918380833296589691
:100D70008D919C91599791838083E881F98181813C
:100D800084FDFCC0818183FDF9C080818E7F8083DA
:100D90001A968D919C911B97892B29F0E881F981F6
:100DA00080818E7F8083E881F9818DEF8083F801D7
:100DB00080859185892BE1F0E881F98182E080834B
:100DC000D8016D917D918D919C91139714962D91E1
:100DD0003D914D915C9117970E94870ADA01C901F4
:100DE00033E0B695A795979587953A95D1F714C0B6
:100DF000F8016081718182819381248135814681EE
:100E000057810E94870ADA01C90124E0B695A795A7
:100E1000979587952A95D1F7AC01BD0141505109AD
:100E200061097109E881F98184811482E881F9817D
:100E300085811582E881F9818481842B8483E8810E
:100E4000F9818581952F9F70892B8583E881F981B0
:100E500082818F738283D8011C968D919C911D97FE
:100E6000E881F9818130910531F070F0029761F4E9
:100E70008281806C02C0828180648283E881F981F2
:100E800080818D7F808303C082818F738283E8811C
:100E9000F98182818F7C8283F80186859785E8813C
:100EA000F9818130910531F040F0029731F482816F
:100EB000806305C08281806202C082818F7C8283D0
:100EC000E881F98181818B7F8183E881F981828149
:100ED000897F8283D80150968D919C915197E881AA
:100EE000F9818230910599F038F4009769F0019703
:100EF00089F48281826015C08330910581F0049766
:100F000049F48181846008C08281897F0AC082811E
:100F1000846007C081818B7F8183E881F981828130
:100F200086608283E881F9818281877F8283F801EC
:100F300082899389892B29F0E881F98182818860EF
:100F40008283E881F98182818E7F8283D8015496E1
:100F50008D919C915597892B29F0E881F9818281A7
:100F600081608283EE2029F0E881F98181818069A6
:100F70008183FF20C1F0E881F9810DC0818184FD6A
:100F800005C0EE2081F0818180690CC0818183FDE4
:100F90000AC0FF2041F0818188648183E881F98162
:100FA000818180628183DF91CF911F910F91FF90AA
:100FB000EF9008950F931F93CF93DF93442331F065
:100FC000DC01ED91FC9121812F762183662371F064
:100FD000EC018C010A5D1F4FC8010E94DC098823C7
:100FE000D9F3E881F9818181877B8183DF91CF917A
:100FF0001F910F910895EF92FF920F931F93CF933C
:10100000DF93EC017B018C010A5D1F4FC8010E9438
:10101000C8098111FBCFB701C8010E94F409E8811A
:10102000F981818180628183DF91CF911F910F913E
:10103000FF90EF900895CF92DF92EF92FF920F937F
:101040001F93CF93DF937C01D42F8B01C0E06C0101
:1010500086E2C80ED11CCD1771F0C6010E94C809E6
:101060008111FBCFD8016D917D918D01C6010E9448
:10107000F409CF5FF0CFD701ED91FC9181818062BF
:1010800081838C2FDF91CF911F910F91FF90EF9073
:10109000DF90CF90089502960C94110ACF92DF92C0
:1010A000EF92FF920F931F93CF93DF937B01D42F87
:1010B000C0E08C010E5F1F4FC8010E94DC09811146
:1010C0000AC06701CC0ED11CC8010E94110AF601AA
:1010D0008083CF5FF1CFCD17A0F38C2FDF91CF911D
:1010E0001F910F91FF90EF90DF90CF90089502969F
:1010F0000C94E3091F93CF93DF93EC01A696CE01E6
:101100000E94F209182FCE010E94E309181B812FBB
:10111000DF91CF911F9108951F920F920FB60F92FA
:1011200011242F933F934F935F936F937F938F93EC
:101130009F93AF93BF93CF93EF93FF93C091C6005C
:10114000E091CE01F091CF01309739F06C2F809172
:1011500005019091060109950CC086E891E00E9476
:10116000C809811106C06C2F70E086E891E00E94EA
:10117000F409FF91EF91CF91BF91AF919F918F9122
:101180007F916F915F914F913F912F910F900FBE83
:101190000F901F9018951F920F920FB60F92112467
:1011A0002F933F934F935F936F937F938F939F936F
:1011B000AF93BF93EF93FF93E091D001F091D101F2
:1011C0008091050190910601309749F009958F3F74
:1011D0002FEF920759F480910501909106018696B0
:1011E0000E94110A8F3F2FEF920719F08093C600DB
:1011F00005C08091C1008F7D8093C100FF91EF9168
:10120000BF91AF919F918F917F916F915F914F911E
:101210003F912F910F900FBE0F901F9018951F9226
:101220000F920FB60F9211240F900FBE0F901F90C8
:1012300018954F925F926F927F928F929F92AF928A
:10124000BF92CF92DF92EF92FF921F93CF93DF93E3
:1012500000D000D000D0CDB7DEB749015A010E94BE
:10126000C90B20E030E543EC57E40E94260B69836C
:101270007A838B839C8310E0C12CD12C7601612F63
:10128000012E000C770B880B990B0E94C90B2B01C8
:101290003C01A50194010E941C0B87FF4EC0212F29
:1012A000012E000C330B3E832D8321EE3AE744E000
:1012B00050E4C301B2010E94B80CA50194010E9440
:1012C000260B2FE135E84BE65EE30E94B00A298148
:1012D0003A814B815C810E94B80C2B013C018D81CD
:1012E0009E8101962D813E81829FB001839F700D6A
:1012F000929F700D1124072E000C880B990B0E94F1
:10130000C90B28ED3FE049E450E40E94B80CA50168
:1013100094010E94260B9B01AC01C301B2010E9403
:10132000AF0A0E94210B9B01AC01C701B6010E94CC
:10133000B00A6B017C011F5FA2CF20E030E040E4E7
:1013400051E4C701B6010E94B80C20E030E04BE345
:1013500053E40E94B00A0E94980B862F26960FB67F
:10136000F894DEBF0FBECDBFDF91CF911F91FF90EC
:10137000EF90DF90CF90BF90AF909F908F907F9035
:101380006F905F904F900895FC0111821082089534
:10139000FC01408150E0818190E040972CF4218154
:1013A00030E02F5F3F4F02C020E030E081E02417A3
:1013B000350709F080E00895FC012081918181E0EA
:1013C000291380E00895FC0191818081981728F00D
:1013D00091818081981B892F0895818190818F5EF2
:1013E000891B089580E108950F931F93CF93DF9396
:1013F000EC018B010E94C80981110EC08981FE0198
:10140000E80FF11DE80FF11D1383028389818F5FBF
:101410008983813108F01982DF91CF911F910F915B
:101420000895FC0190818181981789F08081DF0106
:10143000A80FB11DA80FB11D12962D913C911397C5
:1014400090819F5F9083913120F0108202C02FEF36
:101450003FEFC9010895CF93DF9300D000D01F92D2
:10146000CDB7DEB785E0E1E2F1E0DE011196019053
:101470000D928A95E1F7F8940E9469020E943C025D
:1014800042E050E063E083E290E00E946D0642E0BB
:1014900050E065E083E290E00E946D0641E050E09C
:1014A00060E086E290E00E946D0641E050E063E07B
:1014B00089E290E00E946D0642E050E065E089E23A
:1014C00090E00E946D0663E083E290E00E94560681
:1014D00065E083E290E00E94560665E089E290E0D4
:1014E0000E945606BE016F5F7F4F8EE591E00E941D
:1014F000DD0265E089E290E00E944B0640E06AEB85
:1015000071E08EE591E00E94C4037894FFCFA1E2E0
:101510001A2EAA1BBB1BFD010DC0AA1FBB1FEE1F6D
:10152000FF1FA217B307E407F50720F0A21BB30BB8
:10153000E40BF50B661F771F881F991F1A9469F734
:1015400060957095809590959B01AC01BD01CF0190
:101550000895EE0FFF1F0590F491E02D0994505867
:10156000BB27AA270E94C70A0C946A0C0E94310C60
:1015700038F00E94380C20F039F49F3F19F426F41B
:101580000C942E0C0EF4E095E7FB0C94280CE92F3C
:101590000E948F0C58F3BA176207730784079507E8
:1015A00020F079F4A6F50C94B10C0EF4E0950B2E16
:1015B000BA2FA02D0B01B90190010C01CA01A001A5
:1015C0001124FF27591B99F0593F50F4503E68F100
:1015D0001A16F040A22F232F342F4427585FF3CF41
:1015E000469537952795A795F0405395C9F77EF412
:1015F0001F16BA0B620B730B840BBAF09150A1F05B
:10160000FF0FBB1F661F771F881FC2F70EC0BA0FE0
:10161000621F731F841F48F4879577956795B79568
:10162000F7959E3F08F0B0CF9395880F08F0992763
:10163000EE0F9795879508950E94040C08F481E0B9
:1016400008950E94410CE3950C947B0C0E943A0B88
:101650000C946A0C0E94380C58F00E94310C40F037
:1016600029F45F3F29F00C94280C51110C94B20C12
:101670000C942E0C0E948F0C68F39923B1F3552320
:1016800091F3951B550BBB27AA2762177307840795
:1016900038F09F5F5F4F220F331F441FAA1FA9F32B
:1016A00035D00E2E3AF0E0E832D091505040E69519
:1016B000001CCAF72BD0FE2F29D0660F771F881F7A
:1016C000BB1F261737074807AB07B0E809F0BB0B6D
:1016D000802DBF01FF2793585F4F3AF09E3F510581
:1016E00078F00C94280C0C94B20C5F3FE4F3983E15
:1016F000D4F3869577956795B795F7959F5FC9F76A
:10170000880F911D9695879597F90895E1E0660FEA
:10171000771F881FBB1F621773078407BA0720F063
:10172000621B730B840BBA0BEE1F88F7E0950895CC
:101730000E94970C88F09F5798F0B92F9927B751BE
:10174000B0F0E1F0660F771F881F991F1AF0BA9565
:10175000C9F714C0B13091F00E94B10CB1E0089506
:101760000C94B10C672F782F8827B85F39F0B93FF8
:10177000CCF3869577956795B395D9F73EF4909518
:101780008095709561957F4F8F4F9F4F0895E89496
:1017900009C097FB3EF490958095709561957F4FB9
:1017A0008F4F9F4F9923A9F0F92F96E9BB27939567
:1017B000F695879577956795B795F111F8CFFAF477
:1017C000BB0F11F460FF1BC06F5F7F4F8F4F9F4FA8
:1017D00016C0882311F096E911C0772321F09EE806
:1017E000872F762F05C0662371F096E8862F70E06C
:1017F00060E02AF09A95660F771F881FDAF7880F46
:101800009695879597F90895990F0008550FAA0B9B
:10181000E0E8FEEF16161706E807F907C0F0121603
:101820001306E407F50798F0621B730B840B950B06
:1018300039F40A2661F0232B242B252B21F408955B
:101840000A2609F4A140A6958FEF811D811D0895F8
:1018500097F99F6780E870E060E008959FEF80EC63
:10186000089500240A941616170618060906089506
:1018700000240A94121613061406050608950C9403
:101880002E0C0E94970CD8F3E894E0E0BB279F57FA
:10189000F0F02AED3FE049EC06C0EE0FBB0F661FEB
:1018A000771F881F28F0B23A62077307840728F071
:1018B000B25A620B730B840BE3959A9572F78038DA
:1018C00030F49A95BB0F661F771F881FD2F7904898
:1018D0000C94270D092E0394000C11F4882352F068
:1018E000BB0F40F4BF2B11F460FF04C06F5F7F4F4C
:1018F0008F4F9F4F0895EF93E0FF07C0A2EA2AEDB4
:101900003FE049EC5FEB0E94C70A0E946A0C0F900F
:10191000039401FC9058E6E7F0E00C94330D57FD7A
:101920009058440F551F59F05F3F71F04795880F4D
:1019300097FB991F61F09F3F79F0879508951216E4
:1019400013061406551FF2CF4695F1DF08C0161690
:1019500017061806991FF1CF869571056105089441
:101960000895E894BB2766277727CB0197F9089558
:101970000E94CB0C0C946A0C0E94310C38F00E942F
:10198000380C20F0952311F00C94280C0C942E0C9C
:1019900011240C94B20C0E948F0C70F3959FC1F32C
:1019A000950F50E0551F629FF001729FBB27F00D0D
:1019B000B11D639FAA27F00DB11DAA1F649F662762
:1019C000B00DA11D661F829F2227B00DA11D621FB1
:1019D000739FB00DA11D621F839FA00D611D221F6B
:1019E000749F3327A00D611D231F849F600D211D4F
:1019F000822F762F6A2F11249F5750409AF0F1F0D2
:101A000088234AF0EE0FFF1FBB1F661F771F881F3A
:101A100091505040A9F79E3F510580F00C94280C3E
:101A20000C94B20C5F3FE4F3983ED4F3869577951F
:101A30006795B795F795E7959F5FC1F7FE2B880FE0
:101A4000911D9695879597F908959F3F31F0915094
:101A500020F4879577956795B795880F911D969592
:101A6000879597F908959F938F937F936F93FF9333
:101A7000EF939B01AC010E94B80CEF91FF910E9483
:101A8000470D2F913F914F915F910C94B80CDF93CC
:101A9000CF931F930F93FF92EF92DF927B018C0104
:101AA000689406C0DA2EEF010E94CB0CFE01E89488
:101AB000A5912591359145915591A6F3EF010E948D
:101AC000C70AFE019701A801DA9469F7DF90EF9049
:101AD000FF900F911F91CF91DF910895F894FFCF60
:101AE000010000009F84010024F40040420F000127
:101AF00000000000000000030000000000000000E3
:061B00000002000400FFDA
:00000001FF
