:100000000C943B000C9458000C9458000C9458002D
:100010000C9424090C9458000C9458000C946D0313
:100020000C94A1030C9439030C9458000C945800C0
:100030000C9458000C94D5030C94D1020C94050335
:100040000C949D020C9458000C9427070C9466079E
:100050000C9458000C9458000C9458000C945800C0
:100060000C9458000C9458004A01500156015C0150
:10007000620168016E0111241FBECFEFD8E0DEBF20
:10008000CDBF11E0A0E0B1E0E4EBF4E102C00590E7
:100090000D92A632B107D9F721E0A6E2B1E001C086
:1000A0001D92A93DB207E1F70E94A7090C94580AD6
:1000B0000C940000A2E7B1E084E490E011969C93D8
:1000C0008E93EFE5F1E080EB90E09183808385E310
:1000D00090E013969C938E93129787E390E093831E
:1000E00082838EE690E015969C938E93149780E71A
:1000F00090E0958384831B961C921E921A975096CB
:100100001C921E921F971E961C921E921D9713867C
:100110001286108A178616861586EAE4F1E080E8D2
:1001200090E09183808384E890E09383828386E3E8
:1001300090E0958384838FE690E09783868315868D
:100140001486128A118A108A17860895FC01A281EA
:10015000B3818C911C92A281B38111968C911197DD
:1001600011961C92A081B1818C911C92A081B181C9
:1001700011968C911197826011968C93A081B18118
:1001800012968C91129712961C92A281B3811496AA
:100190006C930280F381E02D45830895CF93DF9324
:1001A000DC01FB01CD91DC9111978A811A8280815B
:1001B000918117969C938E931697828193811996BD
:1001C0009C938E931897CD91DC91119788818C7FA9
:1001D0008883CD91DC9111978981877F89831696D9
:1001E0008D919C9117978130910569F030F08230A4
:1001F0009105A9F00397D1F02BC0ED91FC911197D7
:100200008081808330C0CD91DC911197888182609C
:100210008883CD91DC91119784818B8324C0ED91EB
:10022000FC9111978081836080831DC0CD91DC910A
:100230001197888183608883CD91DC9111978981A2
:1002400088608983CD91DC91119784818B830BC069
:10025000ED91FC91119780818083ED91FC91119734
:100260008181877F8183ED91FC9111978181887FC6
:10027000818312968D919C911397C797D9F5189603
:10028000ED91FC911997E730F10570F5EC5CFF4FAB
:100290000C94520AED91FC9181818160818360C050
:1002A000ED91FC918181826081835AC0ED91FC9136
:1002B00081818360818354C0ED91FC918181846050
:1002C00081834EC0ED91FC9181818560818348C01E
:1002D000ED91FC9181818660818342C0ED91FC911A
:1002E0008181876081833CC0ED91FC918181816037
:1002F000818336C018968D919C9119978330910512
:10030000C1F028F4009749F0019769F024C08530C6
:100310009105A9F00697C9F01EC0ED91FC9181816D
:10032000816081831DC0ED91FC9181818260818318
:1003300017C0ED91FC9181818360818311C0ED91A3
:10034000FC918181846081830BC0ED91FC9181815E
:100350008560818305C0ED91FC91818181608183FD
:10036000DF91CF910895FC01A081B18111969C91FC
:100370001197987F11969C930190F081E02D8281D6
:1003800012820895FC01A081B18111968C91119780
:10039000887F11968C93A281B3818C911C920280EC
:1003A000F381E02D8181118208950F93FC0135873F
:1003B00024870687A081B18111968C91119790E4D2
:1003C000699FB0011124682B11966C93A481B581AB
:1003D0008C9181628C930680F781E02D808181620F
:1003E00080830F910895DC011696ED91FC9117978B
:1003F00080818E7F80830895FC01738762874487A4
:10040000A281B3818C9181608C930480F581E02D71
:100410008081816080830895DC011496ED91FC91C8
:10042000159780818E7F80830895DC01ED91FC918A
:1004300063830895FC01A481B5818C9181608C93C4
:10044000611110C0A081B18113964C93A481B58134
:100450008C9182608C930190F081E02D8081806886
:1004600080830895A081B18114964C93A481B581B5
:100470008C9184608C930190F081E02D808180626A
:100480008083089561110EC0DC011496ED91FC91FA
:10049000159720812D7F2083ED91FC9180818F73B2
:1004A00080830895DC011496ED91FC9115972081CD
:1004B0002B7F2083ED91FC9180818F7C8083089538
:1004C0000F93FC0186819781039721F4A081B1816C
:1004D00013964C93662371F0A281B3818C91846052
:1004E0008C93A481B5818C9184608C93308B278709
:1004F000028B0DC0A281B3818C9182608C93A48108
:10050000B5818C9182608C9336872587018B0F9102
:100510000895662349F0DC011496ED91FC9115973E
:1005200080818B7F80830895DC011496ED91FC918E
:10053000159780818D7F808308951F920F920FB64B
:100540000F9211242F933F934F935F936F937F9359
:100550008F939F93AF93BF93EF93FF93E0917C01B1
:10056000F0917D01309719F082E791E00995809133
:100570007E01882329F0EEE6F0E080818E7F808383
:10058000FF91EF91BF91AF919F918F917F916F916B
:100590005F914F913F912F910F900FBE0F901F9041
:1005A00018951F920F920FB60F9211242F933F931D
:1005B0004F935F936F937F938F939F93AF93BF936B
:1005C000EF93FF93E0917F01F0918001309719F054
:1005D00082E791E0099580918301882329F0EEE676
:1005E000F0E080818D7F8083FF91EF91BF91AF918B
:1005F0009F918F917F916F915F914F913F912F913B
:100600000F900FBE0F901F9018951F920F920FB66C
:100610000F9211242F933F934F935F936F937F9388
:100620008F939F93AF93BF93EF93FF93E0918101DB
:10063000F0918201309719F082E791E0099580915D
:100640008401882329F0EEE6F0E080818B7F8083AF
:10065000FF91EF91BF91AF919F918F917F916F919A
:100660005F914F913F912F910F900FBE0F901F9070
:1006700018951F920F920FB60F9211242F933F934C
:100680004F935F936F937F938F939F93AF93BF939A
:10069000EF93FF93E0916901F0916A01309719F0AF
:1006A0008FE591E0099580916B01882329F0E0E7BF
:1006B000F0E080818E7F8083FF91EF91BF91AF91B9
:1006C0009F918F917F916F915F914F913F912F916A
:1006D0000F900FBE0F901F9018951F920F920FB69C
:1006E0000F9211242F933F934F935F936F937F93B8
:1006F0008F939F93AF93BF93EF93FF93E0916C0120
:10070000F0916D01309719F08FE591E00995809196
:100710007001882329F0E0E7F0E080818D7F8083FD
:10072000FF91EF91BF91AF919F918F917F916F91C9
:100730005F914F913F912F910F900FBE0F901F909F
:1007400018951F920F920FB60F9211242F933F937B
:100750004F935F936F937F938F939F93AF93BF93C9
:10076000EF93FF93E0916E01F0916F01309719F0D4
:100770008FE591E0099580917101882329F0E0E7E8
:10078000F0E080818B7F8083FF91EF91BF91AF91EB
:100790009F918F917F916F915F914F913F912F9199
:1007A0000F900FBE0F901F9018951F920F920FB6CB
:1007B0000F9211242F933F934F935F936F937F93E7
:1007C0008F939F93AF93BF93EF93FF93E091560165
:1007D000F0915701309719F08AE491E009958091E2
:1007E0005801882329F0EFE6F0E080818E7F808336
:1007F000FF91EF91BF91AF919F918F917F916F91F9
:100800005F914F913F912F910F900FBE0F901F90CE
:100810001895FC0180810895FC0162830895FC0114
:10082000128208952FEFFC01228308952FEFFC011F
:1008300020830895FC018281862382830895FC0130
:100840008281962F90958923828382814623482B2B
:1008500042830895FC019281609569236283089523
:10086000FC012281622B62830895FC012081622BAE
:1008700060830895CF93DF93EC01FA013E9627E061
:1008800030E040E090E070E0990F440FDB01022E71
:1008900002C0B595A7950A94E2F7A0FF0AC0A0810F
:1008A000B181A230B10511F4916003C0119709F430
:1008B00041602150310932972F3F8FEF380721F7E0
:1008C00099834A83DF91CF910895AB016FEF0E9426
:1008D0003A040895FC01228181E090E002C0880F73
:1008E000991F6A95E2F782230895DC0112968C9194
:1008F0001297E1E0F0E0062E02C0EE0FFF1F0A940F
:10090000E2F7E095E8231296EC93129712968C91F9
:100910001297242F217030E002C0220F331F6A95F6
:10092000E2F7282B12962C930895FC01428121E0D6
:1009300030E002C0220F331F6A95E2F7242B228396
:100940000895FC01928121E030E002C0220F331FA4
:100950006A95E2F72095292322830895FC014081BE
:1009600021E030E002C0220F331F6A95E2F7242B0A
:1009700020830895FC014230510559F4218181E022
:1009800090E002C0880F991F6A95E2F7822B81835D
:100990000895818121E030E002C0220F331F6A9563
:1009A000E2F7922F9095892381834130510519F404
:1009B0008281282B2283089580EC90E09093860119
:1009C000809385011092D0011092CF011092D20134
:1009D0001092D101809100019091010102960E9434
:1009E000B207809100019091010186960E94B207A2
:1009F0000895EF92FF920F931F93CF93DF93EC0133
:100A00008B01E42EF22EFB0186899789FE01E65BBD
:100A1000FF4F91838083FB01808D918DFE01E45B0C
:100A2000FF4F91838083E881F981818184FD39C101
:100A3000818183FD36C180818E7F8083FB01828529
:100A40009385892B29F0E881F98180818E7F8083CD
:100A5000E881F9818DEF8083F80180859185892B6C
:100A600001F1E881F98182E08083F8016081718180
:100A70008281938124813581468157810E94300A89
:100A8000DA01C901689412F8B695A79597958795EC
:100A90001694D1F7AC01BD014150510961097109AA
:100AA0001BC0F8016081718182819381248135812D
:100AB000468157810E94300ADA01C901689413F80F
:100AC000B695A795979587951694D1F7AC01BD017A
:100AD0004150510961097109E881F98184811482C9
:100AE000E881F98185811582E881F9818481842BEF
:100AF0008483E881F9818581952F9F70892B858377
:100B0000E881F98182818F738283F80184859585DC
:100B10008130910551F018F0029791F01CC0E881E6
:100B2000F98182818F7382831BC0E881F981828180
:100B300080648283E881F98180818D7F808310C009
:100B4000E881F9818281806C8283E881F9818081EA
:100B50008D7F808305C0E881F98182818F738283D4
:100B6000E881F98182818F7C8283F801868597856F
:100B70008130910551F018F0029769F012C0E881B8
:100B8000F98182818F7C828311C0E881F981828121
:100B9000806282830BC0E881F981828180638283D5
:100BA00005C0E881F98182818F7C8283E881F981A7
:100BB00081818B7F8183E881F9818281897F828332
:100BC000F8018089918982309105C1F028F400975D
:100BD00049F0019769F029C083309105A9F0049785
:100BE000C9F023C0E881F9818281897F828327C08F
:100BF000E881F98182818260828321C0E881F98164
:100C00008281846082831BC0E881F9818281866051
:100C1000828315C0E881F981818184608183E881C4
:100C2000F9818281866082830AC0E881F9818181AD
:100C30008B7F8183E881F981828186608283E8816C
:100C4000F9818281877F8283F80182899389892B48
:100C500029F0E881F981828188608283E881F981C5
:100C600082818E7F8283F80184899589892B29F07E
:100C7000E881F981828181608283FF2029F0E88107
:100C8000F981818180698183EE2009F1E881F98110
:100C9000818188648183E881F98181818062818397
:100CA00016C0818184FD06C0FF2089F081818069A2
:100CB00081830DC0818183FD0AC0EE2041F08181D6
:100CC00088648183E881F981818180628183DF91F9
:100CD000CF911F910F91FF90EF9008950F931F9365
:100CE000CF93DF93442331F0DC01ED91FC9121811E
:100CF0002F762183662371F08C01EC01A696CE013C
:100D00000E94CD078823D9F3D801ED91FC91818110
:100D1000877B8183DF91CF911F910F910895CF92AF
:100D2000DF92EF92FF920F931F93CF93DF937C019B
:100D30006B01EC01A696CE010E94B6078111FBCF94
:100D4000B6018C2F9D2F0E94E607D701ED91FC91F3
:100D5000818180628183DF91CF911F910F91FF90FC
:100D6000EF90DF90CF900895CF92DF92EF92FF92B5
:100D70000F931F93CF93DF936C01042F4423A1F0B3
:100D8000E62EF72E10E0EC01A696CE010E94B607E3
:100D90008111FBCFD7016D917D917D01CE010E9424
:100DA000E6071F5F0113F1CFD601ED91FC91818120
:100DB00080628183802FDF91CF911F910F91FF90EF
:100DC000EF90DF90CF90089502960E940408089556
:100DD000CF92DF92EF92FF920F931F93CF93DF9307
:100DE0006B01D42FC0E08C010E5F1F4F09C076014C
:100DF000EC0EF11CC8010E940408F7018083CF5F4C
:100E0000C8010E94CD07882391F3CD1780F38C2F62
:100E1000DF91CF911F910F91FF90EF90DF90CF90D6
:100E2000089502960E94D40708951F93CF93DF93ED
:100E3000EC01A696CE010E94E407182FCE010E9475
:100E4000D407181B812FDF91CF911F9108951F9216
:100E50000F920FB60F9211242F933F934F935F93EE
:100E60006F937F938F939F93AF93BF93CF93EF93A2
:100E7000FF93C091C600E091CF01F091D00130976F
:100E800039F06C2F809100019091010109950CC0FF
:100E900087E891E00E94B607811106C06C2F70E0D0
:100EA00087E891E00E94E607FF91EF91CF91BF9113
:100EB000AF919F918F917F916F915F914F913F91F2
:100EC0002F910F900FBE0F901F9018951F920F92A9
:100ED0000FB60F9211242F933F934F935F936F930D
:100EE0007F938F939F93AF93BF93EF93FF93E09183
:100EF000D101F091D201309789F080910001909159
:100F0000010109958F3F2FEF920799F4809100011D
:100F10009091010186960E94040807C0809100010B
:100F20009091010186960E9404088F3F2FEF92074F
:100F300019F08093C60005C0E1ECF0E080818F7D60
:100F40008083FF91EF91BF91AF919F918F917F919E
:100F50006F915F914F913F912F910F900FBE0F9026
:100F60001F901895FC01118210820895FC014081A8
:100F700050E0218130E02F5F3F4F213131052CF4CB
:100F8000218130E02F5F3F4F02C020E030E081E060
:100F90002417350709F080E00895FC012081918134
:100FA00081E0291380E00895FC01918180819817E8
:100FB00028F091818081981B892F0895918120814B
:100FC00081E1890F821B089580E108950F931F939B
:100FD000CF93DF93EC018B010E94B60781110FC004
:100FE000E981F0E03196EE0FFF1FEC0FFD1F11833A
:100FF000008389818F5F8983813108F01982DF91B5
:10100000CF911F910F910895FC01908181819817D4
:1010100081F0A081B0E01196AA0FBB1FAE0FBF1FD9
:101020008D919C9120812F5F2083213120F01082AF
:1010300008958FEF9FEF08958091480190914901A5
:101040008F34934C49F4809147018F5F809347011F
:1010500010924901109248018091480190914901F4
:101060000196909349018093480180914701863011
:1010700061F4809126018F5F863019F080932601FC
:1010800002C0109226011092470180912F01909189
:101090003001A0913101B09132010196A11DB11D25
:1010A00080932F0190933001A0933101B0933201CE
:1010B00008950F931F9390914401983019F0911166
:1010C0003FC001C090E040912F01509130016091EC
:1010D000310170913201E4E3F1E09A013327318369
:1010E0002083052F162F272F3327112713830283E1
:1010F000262F30E035832483409127015091280129
:101100006091290170912A019A0133273783268340
:10111000052F162F272F3327112711870087262FFA
:1011200030E033872287A0912601B0E0AD52BE4F58
:101130002C9130E03587248722E030E037872687FE
:10114000E92FF0E0EE0FFF1FEC5CFE4F20813181B4
:101150009F5F90934401C9011F910F910895809161
:10116000450190914601843F914049F467E089E24E
:1011700090E00E94AE0410924601109245018091C9
:101180004501909146010196909346018093450157
:101190000895662361F0FC01615070E06F5F7F4F3E
:1011A000860F971F21E02193E817F907E1F70895CB
:1011B000662339F0E82FF92F80E081938F5F681361
:1011C000FCCF0895CF93DF93DC01862F642F0E941C
:1011D000240A442319F150E0C82FD0E0859F902DB8
:1011E0001124252F30E02F5F3F4F2C9FB0012D9F02
:1011F000700D3C9F700D1124292F30E02617370702
:1012000054F4FD01E90FF11D50839F5F292F30E059
:1012100026173707B4F35F5F541700F3DF91CF91C0
:101220000895662381F0FC016150262F30E02F5F86
:101230003F4F280F391F9081949F902D1124919337
:10124000E217F307C1F708951F920F920FB60F929E
:101250001124CF92DF92EF92FF920F931F932F935F
:101260003F934F935F936F937F938F939F9396B129
:1012700080913301892380FD28C090FF26C04091D2
:101280002F01509130016091310170913201009134
:101290002B0110912C0120912D0130912E016A011A
:1012A0007B01C01AD10AE20AF30AC0922701D09248
:1012B0002801E0922901F0922A0140932B015093DA
:1012C0002C0160932D0170932E01909333019F9117
:1012D0008F917F916F915F914F913F912F911F91CE
:1012E0000F91FF90EF90DF90CF900F900FBE0F9077
:1012F0001F901895CF93DF93CDB7DEB76A970FB6DF
:10130000F894DEBF0FBECDBF8AE1E2E0F1E0DE017E
:10131000119601900D928A95E1F7809100019091CC
:1013200001010E94DC0420E041E0BE016F5F7F4FBD
:1013300080910001909101010E94F9046A960FB614
:10134000F894DEBF0FBECDBFDF91CF910895CF934C
:10135000DF93CDB7DEB72A970FB6F894DEBF0FBE86
:10136000CDBF85E0ECE1F1E0DE01119601900D9238
:101370008A95E1F785E0E1E2F1E0DE011696019061
:101380000D928A95E1F778940E945A000E947A099A
:1013900042E050E063E083E290E00E94BA0441E062
:1013A00050E060E086E290E00E94BA0442E050E043
:1013B00065E083E290E00E94BA0442E050E067E01A
:1013C00089E290E00E94BA0465E083E290E00E9426
:1013D000A104BE016F5F7F4F82E791E00E94CE00C3
:1013E00000E02CE138E040E060E082E791E00E941C
:1013F0006002E8E6F0E0808182608083ECE6F0E065
:1014000080818160808346E066E083ED91E00E9408
:10141000E20842E366E083ED91E00E941109BE011B
:101420006A5F7F4F8FE591E00E94CE0040E06FEA57
:1014300078E08FE591E00E94FC014FE760E08FE5E6
:1014400091E00E941A02FFCF991B79E004C0991F16
:10145000961708F0961B881F7A95C9F7809508950E
:10146000A1E21A2EAA1BBB1BFD010DC0AA1FBB1FA8
:10147000EE1FFF1FA217B307E407F50720F0A21B1A
:10148000B30BE40BF50B661F771F881F991F1A9487
:1014900069F760957095809590959B01AC01BD01B1
:1014A000CF010895EE0FFF1F0590F491E02D0994F0
:0414B000F894FFCFDE
:1014B40085010024F40000C20100010000000000C6
:1014C40000000300000000000000590801000000B3
:0614D4009F02000300FF6F
:00000001FF
